:020000040800F2
:1000000010210020E10100086D28000813250008D8
:1000100069280008690500089D2D000800000000FF
:10002000000000000000000000000000490100087E
:100030008D050008000000008D010008A3280008BD
:10004000FB010008FB010008FB010008FB010008A0
:10005000FB010008FB010008FB010008FB01000890
:10006000FB010008FB010008FB010008FB01000880
:10007000FB010008FB010008FB010008FB01000870
:10008000FB010008FB010008FB010008FB01000860
:10009000FB010008FB010008FB010008FB01000850
:1000A000FB010008FB010008FB010008FB01000840
:1000B000FB010008FB010008FB010008FB01000830
:1000C000FB010008FB010008FB010008FB01000820
:1000D000FB010008FB010008FB010008FB01000810
:1000E000FB010008FB010008FB010008FB01000800
:1000F000FB010008FB010008FB010008FB010008F0
:10010000FB010008FB010008FB010008FB010008DF
:10011000C9290008FB010008FB0100080D2900089F
:10012000FB010008FB0100086D0500087D050008C3
:10013000DFF810D000F022F900480047B93200087B
:10014000AFF3008010210020224B19680868B0E846
:10015000F00F80F30988BFF36F8F4FF0000080F33A
:1001600011884EF00D0E7047000000000648006830
:10017000006880F3088862B661B6BFF34F8FBFF3A3
:100180006F8F00DF00BF00BF08ED00E0EFF30980D4
:10019000BFF36F8F0F4B1A6820E9F00F106008B59E
:1001A0004FF0500080F31188BFF34F8FBFF36F8F74
:1001B00004F088F94FF0000080F31188BDE8084092
:1001C00019680868B0E8F00F80F30988BFF36F8FF3
:1001D000704700BF24000020EFF305807047000047
:1001E0000648804706480047FEE7FEE7FEE7FEE7D1
:1001F000FEE7FEE7FEE7FEE7FEE7FEE70929000867
:1002000031010008202A04DB203A21FA02F0002103
:10021000704721FA02F3D040C2F120029140084316
:100220001946704740EA01039B0703D009E008C95B
:10023000121F08C0042AFAD203E011F8013B00F8AB
:10024000013B521EF9D27047D2B201E000F8012BF7
:10025000491EFBD270470022F6E710B513460A4646
:1002600004461946FFF7F0FF204610BD30B505469D
:100270002A460B4612F8010B13F8014B08B1A042B5
:10028000F8D01CB1002802D06D1CF1E7284630BD23
:1002900070B5064602F0B0FD046805460A2200214A
:1002A000304600F033F82C6070BD2DE9F05F054654
:1002B000002092469B4688460646814640241BE025
:1002C0002846414647462246FFF79CFF53465A467A
:1002D000C01A914110D311461846224600F060F82A
:1002E0002D1A67EB01084F4622460120002100F03D
:1002F00057F817EB00094E41201EA4F10104DFDC82
:10030000484631462A464346BDE8F09F2DE9F0476E
:1003100091460F4680460446002614F8015B2DB135
:1003200000F04EF80068405DC007F6D12B2D02D0DA
:100330002D2D18D0641E4A463946204600F044F858
:1003400027B13968A14201D1C7F8008071054FF08B
:1003500002040BD54042002803DD02F04DFD04608D
:10036000A007BDE8F08746F48066E4E70028F8DAE5
:1003700002F042FD04606FF00040F2E7064C074DCA
:1003800006E0E06840F0010394E807009847103465
:10039000AC42F6D3FFF7D0FED4530008F453000864
:1003A000202A04DB203A00FA02F100207047914035
:1003B000C2F1200320FA03F3194390407047000074
:1003C00000487047985300082DE9F05F8246007896
:1003D000002715468B460AF10104B946302801D0A2
:1003E0009DB113E014F8010B0127782803D0582899
:1003F00001D045B10AE00DB1102D07D1002710251D
:1004000014F8010B02E0082500E00A250026B0469A
:100410000EE005FB080005FB06F1012701EB104685
:100420001FFA80F8B6F5803F00D3B94614F8010BE7
:10043000294600F018F80028EBDABBF1000F05D0D0
:100440000FB1641E00E05446CBF80040B9F1000F34
:1004500006D002F0D1FC02210160C81EBDE8F09F69
:1004600048EA0640FAE73A2800D2303820F0200265
:10047000412A01D3A2F13700884201D34FF0FF3067
:100480007047000038B517A002F08AFC1AA002F0ED
:1004900087FC20A002F084FC21E06FF07F40244B19
:1004A000402224490090244801F089FC204800881B
:1004B000002814DD21A11F48FFF7D8FE044654B1DF
:1004C000A01DFFF7E5FE1F490860084601681EA051
:1004D00002F066FC04E020A002F062FC00BFDCE752
:1004E00000BF38BD626F6F746C6F6164657220739A
:1004F000746172740D0A0000776169742075736508
:100500007220746F2073656E6420646174610D0ADB
:100510000000000073656E64202773746172743A82
:100520006C656E2720746F2073746172740D0A00FD
:10053000B0000020CC1C0020C00000207374617249
:10054000743A0000B4000020617070206C656E3A4F
:100550002025640D0A0000006461746120657272D8
:100560006F720D0A0000000000BFFEE710B50248E0
:1005700000F0C2F910BD00000801002010B50248CB
:1005800000F0BAF910BD00004C010020704772B6AF
:1005900000BFFEE70021074AD1610749096941F020
:1005A0000401054A11611146096941F040011161D8
:1005B00070470000D8010020002002400021074AB7
:1005C000D1610749096941F00201054A11611146EB
:1005D0004861096941F0400111617047D80100206C
:1005E000002002400022054BDA61054A126942F000
:1005F0000102034B1A61018070470000D8010020FE
:100600000020024000201E49C96801F0100139B1E4
:100610001C49C96941F002011A4AD16140F0100039
:100620001749C96801F0040139B11649C96941F097
:100630000101144AD16140F004001149C96901F077
:10064000010169B10F49C96941F004010D4AD16145
:1006500000BF0B49C96921F00101094AD16100BFFE
:1006600000BF40F20111884206D10549C96921F055
:100670000101034AD16101E00149C86000BF704730
:1006800000200240D801002070B5044600F0C8FDEB
:10069000054609E0601C38B124B100F0C1FD401BE3
:1006A000A04201D9032070BD1248C06800F00100CB
:1006B0000028EFD10F48C06800F0200020B100BF33
:1006C00020200C49C86000BF0A48C06800F0100034
:1006D00048B90848C06900F0010020B90548C06861
:1006E00000F0040018B1FFF78DFF0120DBE70020C8
:1006F000D9E70000002002400146002291F82100C5
:10070000022808D00420886300BF002081F8200060
:1007100000BF012070470868006820F00E000B68D9
:1007200018600868006820F001000B68186091F8F4
:10073000403001209840CB6B5860012081F82100A7
:1007400000BF002081F8200000BF1046E2E7000053
:1007500070B50446002594F82100022803D0042037
:10076000A0630125C1E02068006820F00E00216828
:1007700008602068006820F00100216808605C497A
:100780002068884252D95A4978392068884201D174
:10079000012047E0564964392068884201D1102081
:1007A00040E0534950392068884201D1801539E032
:1007B0004F493C392068884201D1801432E04C49CD
:1007C00028392068884202D14FF480302AE0484915
:1007D00014392068884202D14FF4801022E0444945
:1007E0002068884201D140041CE0424920688842C8
:1007F00001D1012016E03F4914312068884201D11F
:1008000010200FE03B4928312068884201D1801533
:1008100008E038493C312068884201D1801401E069
:100820004FF480303349091F086051E0304978396E
:100830002068884201D1012047E02D4964392068B1
:10084000884201D1102040E029495039206888426F
:1008500001D1801539E026493C392068884201D110
:10086000801432E0224928392068884202D14FF4AE
:1008700080302AE01E4914392068884202D14FF4A2
:10088000801022E01A492068884201D140041CE00F
:1008900018492068884201D1012016E01549143119
:1008A0002068884201D110200FE0124928312068C9
:1008B000884201D1801508E00E493C312068884209
:1008C00001D1801401E04FF480300949803948603B
:1008D000012084F8210000BF002084F8200000BF20
:1008E000606B10B12046616B8847284670BD0000E0
:1008F000800002400804024070B50446E06B0568C1
:100900002068066894F84010042088402840002899
:1009100075D006F004000028FAD02068006800F0C6
:10092000200028B92068006820F0040021680860D1
:10093000D5492068884254D9D349783920688842FB
:1009400001D1042049E0D04964392068884201D1AE
:10095000402042E0CC4950392068884201D100153E
:100960003BE0C9493C392068884202D14FF48040BD
:1009700033E0C54928392068884202D14FF48020ED
:100980002BE0C14914392068884202D14FF480001D
:1009900023E0BD492068884201D1C0041DE0BB4965
:1009A0002068884201D1042017E0B849143120683A
:1009B000884201D1402010E0B449283120688842A3
:1009C00001D1001509E0B1493C312068884202D1CB
:1009D0004FF4804001E04FF48020AC49091F0860CB
:1009E00054E0A94978392068884201D104204AE0BE
:1009F000A54964392068884202D1402043E04CE098
:100A0000A14950392068884201D100153BE09E4938
:100A10003C392068884202D14FF4804033E09A4943
:100A200028392068884202D14FF480202BE0964973
:100A300014392068884202D14FF4800023E09249A3
:100A40002068884201D1C0041DE090492068884296
:100A500001D1042017E08D4914312068884201D16A
:100A6000402010E0894928312068884201D10015D2
:100A700009E086493C312068884202D14FF4804029
:100A800001E04FF48020804980394860E06A002806
:100A900002D02046E16A8847F4E094F84010022032
:100AA00088402840002871D006F002000028FAD0C3
:100AB0002068006800F0200040B92068006820F03D
:100AC0000A0021680860012084F821006E4920682E
:100AD000884254D96C4978392068884201D1022073
:100AE00049E0694964392068884201D1202042E008
:100AF000654950392068884201D140153BE0624980
:100B00003C392068884202D14FF4005033E05E49FE
:100B100028392068884202D14FF400302BE05A492E
:100B200014392068884202D14FF4001023E056495E
:100B30002068884201D180041DE054492068884221
:100B400001D1022017E0514914312068884201D1B7
:100B5000202010E04D4928312068884201D14015FD
:100B600009E04A493C312068884202D14FF40050E4
:100B700001E04FF400304549091F086054E0424944
:100B800078392068884202D102204AE057E03E4985
:100B900064392068884201D1202042E03A49503926
:100BA0002068884201D140153BE037493C39206834
:100BB000884202D14FF4005033E03349283920688D
:100BC000884202D14FF400302BE02F4914392068BD
:100BD000884202D14FF4001023E02B49206888425C
:100BE00001D180041DE029492068884201D10220FA
:100BF00017E0264914312068884201D1202010E0F6
:100C0000224928312068884201D1401509E01F4956
:100C10003C312068884202D14FF4005001E04FF48B
:100C2000003019498039486000BF002084F8200056
:100C300000BFA06A30B32046A16A884722E094F83A
:100C40004010082088402840E0B106F00800C8B1F4
:100C50002068006820F00E002168086094F84010B9
:100C600001208840E16B48600120A06384F82100E6
:100C700000BF002084F8200000BF206B10B1204688
:100C8000216B884770BD00008000024008040240CC
:100C90000146002209B9012070471E4B086898429E
:100CA0000BD21D4B0868C01A1423B0FBF3F0800070
:100CB000086419480838C8630AE0164B0868C01A67
:100CC0001423B0FBF3F08000086412480838C863AE
:100CD000022081F821000868026843F6F070824320
:100CE000D1E901031843CB6818430B6918434B69DA
:100CF00018438B691843CB691843024308680260A4
:100D000000208863012081F82100002081F8200064
:100D100000BFC1E708040240080002402DE9F0418D
:100D200004460E460127002500BF2648007E012804
:100D300002D10220BDE8F08101202249087600BFDF
:100D40002068022813D14CF25030FFF79DFC90BB75
:100D50000120FFF71FFC4CF25030FFF795FC0746CF
:100D60001948006920F004001749086123E04CF29B
:100D70005030FFF789FCF0B94FF0FF303060A568C4
:100D800012E02846FFF71AFC4CF25030FFF77CFCCB
:100D900007460D48006920F002000B4908610FB1B9
:100DA000356007E005F50065D4E9021001EBC020CD
:100DB000A842E6D800BF00BF00200249087600BF65
:100DC0003846B7E7D80100200020024003480069F8
:100DD00040F0800001490861002070470020024077
:100DE0002DE9FE4F05468B461746984601260024FE
:100DF0000020029000BF2448007E012802D102207A
:100E0000BDE8FE8F01202049087600BF4CF250302B
:100E1000FFF73AFC064686BB012D02D10120029065
:100E200006E0022D02D10220029001E0042002908F
:100E300000241EE02201B946C24648465146FFF74B
:100E4000E1F980B20190022000FB04B0009001990A
:100E5000FFF7C8FB4CF25030FFF716FC06460B4874
:100E6000006920F001000949086106B104E0601C36
:100E7000C4B202988442DDDB00BF00BF00200249FB
:100E8000087600BF3046BBE7D801002000200240B2
:100E900000200849096901F0800151B10649054A5D
:100EA0005160064951601146096901F0800101B1A4
:100EB000012070470020024023016745AB89EFCD38
:100EC0002DE9F847024600239C467BE14FF00108DC
:100ED00008FA03F4D1F8008008EA0400A0427DD1AA
:100EE000DFF8F4A2D1F80480A8EB0A09D0453AD083
:100EF00014DCB8F1030F50D009DCB8F1000F31D089
:100F0000B8F1010F1CD0B8F1020F49D120E0B8F1BF
:100F1000110F18D0B8F1120F42D11EE0B9F5881F99
:100F200025D006DCB9F5803F20D0B9F5801F37D138
:100F30001AE0B9F5001F18D0B9F5041F30D117E039
:100F4000D1F80CC02DE0D1F80C8008F1040C28E099
:100F5000D1F80C8008F1080C23E0D1F80C8008F1DE
:100F60000C0C1EE000BF00BF00BF00BF00BF00BFF1
:100F7000D1F80880B8F1000F02D14FF0040C0BE05B
:100F8000D1F80880B8F1010F03D14FF0080C1461BB
:100F900002E04FF0080C546103E04FF0000C00E059
:100FA00000BF00BFFF2801D8904601E002F104080D
:100FB0004646FF2802D84FEA830803E0A3F1080859
:100FC0004FEA88084746D6F800804FF00F0909FA23
:100FD00007F928EA09080CFA07F900E07AE048EA7C
:100FE0000908C6F80080D1F8048008F08058B8F1EC
:100FF000805F6FD100BFDFF8E481D8F8188048F037
:101000000108DFF8D891C9F81880C846D8F81880C8
:1010100008F00108CDF8008000BF00BF4FEAB938E2
:101020004FEA930958F829504FEA83784FEA187924
:101030004FF00F0808FA09F825EA0805DFF8A08143
:10104000424502D14FF0000824E0DFF89881424584
:1010500002D14FF001081DE0DFF88C81424502D13A
:101060004FF0020816E0DFF88481424502D14FF0CC
:1010700003080FE0DFF87881424502D14FF0040801
:1010800008E0DFF87081424502D14FF0050801E029
:101090004FF006084FEA83794FEA197908FA09F800
:1010A00048EA0505DFF850814FEA930948F82950CE
:1010B000D1F8048008F48018B8F5801F0BD1DFF850
:1010C0003C81D8F8008048EA0008DFF83091C9F880
:1010D00000800AE075E0DFF82481D8F8008028EA73
:1010E0000008DFF81891C9F80080D1F8048008F4EE
:1010F0000018B8F5001F0ED1DFF8008108F10408D0
:10110000D8F8008048EA0008DFF8F09009F10409F7
:10111000C9F800800DE0DFF8E48008F10408D8F891
:10112000008028EA0008DFF8D49009F10409C9F822
:101130000080D1F8048008F40038B8F5003F0ED1E3
:10114000DFF8B880A8F10408D8F8008048EA000861
:10115000DFF8A890A9F10409C9F800800DE0DFF8D4
:101160009C80A8F10408D8F8008028EA0008DFF87D
:101170008C90A9F10409C9F80080D1F8048008F422
:101180008038B8F5803F0ED1DFF87080A8F10808EC
:10119000D8F8008048EA0008DFF86090A9F1080953
:1011A000C9F800800DE0DFF85480A8F10808D8F8ED
:1011B000008028EA0008DFF84490A9F10809C9F87E
:1011C00000805B1CD1F8008028FA03F8B8F1000F0A
:1011D0007FF47CAEBDE8F8870000111000100240DB
:1011E00000080140000C01400010014000140140C3
:1011F00000180140001C01400800014008040140A3
:1012000010B5C26821EA020302EA010443EA04437A
:10121000036110BD0AB1016101E00B040361704775
:10122000014800687047000014000020034800686F
:1012300003490978084401490860704714000020F8
:101240001C00002010B50848006840F01000064956
:101250000860032000F0E2F80F2000F007F800F02B
:101260005FF8002010BD0000002002402DE9F04191
:1012700088B004460027B846002600BF2348C0694E
:1012800040F020002149C8610846C06900F02000F4
:10129000019000BF00BF02A903A800F099F9069FC2
:1012A0001FB900F0BDF9054602E000F0B9F94500AC
:1012B0001748B5FBF0F0A0F1010816481649086080
:1012C00040F2E7311448C160C0F804800021016198
:1012D0008160816100F030FC064696B90E4800F04E
:1012E0005FFC06466EB9372000F04AF8102C07D292
:1012F00000222146372000F053F80848046000E03F
:101300000126304608B0BDE8F08100000010024020
:1013100040420F00001400409001002018000020FF
:1013200008B500BF1448806940F001001249886187
:101330000846806900F00100009000BF00BF00BFB8
:101340000846C06940F08050C8610846C06900F096
:101350008050009000BF00BF00220F21901E00F0BF
:101360001FF800BF0549486820F0E06040F00070B9
:10137000486000BF08BD00000010024000000140AE
:1013800001460846002809DB00F01F0301229A40AD
:1013900043099B0003F1E023C3F8002100BF70471D
:1013A0002DE9F05F80460D461646002701F008FD46
:1013B000074639462A46334601F00700C0F1070ABE
:1013C000BAF1040F02D94FF0040A01E0C0F1070A94
:1013D000D14600F1040ABAF1070F02D24FF0000A19
:1013E00001E0A0F1030AD4464FF0010A0AFA09FA13
:1013F000AAF1010A0AEA020A0AFA0CFA4FF0010BF2
:101400000BFA0CFBABF1010B0BEA030B4AEA0B04E2
:101410002146404601F0DCFCBDE8F09F00BF00F033
:101420000702064B19684FF6FF031940044B0B43A4
:1014300043EA0221014B196000BF70470CED00E048
:101440000000FA0570B504460D460CB9012070BDC8
:101450005A48006800F00700A8420ED257480068BA
:1014600020F007002843554908600846006800F04E
:101470000700A84201D00120E9E7207800F002002F
:1014800002281DD1207800F00400042805D14C4822
:10149000406840F4E0604A494860207800F0080065
:1014A000082805D14648406840F4605044494860E7
:1014B0004348406820F0F000A16808434049486074
:1014C000207800F0010078B36068012806D13C481C
:1014D000006800F4003090B90120B8E76068022885
:1014E00006D13748006800F0007040B90120AEE72F
:1014F0003348006800F0020008B90120A7E730482F
:10150000406820F00300616808432D494860FFF7F8
:1015100087FE064609E0FFF783FE801B41F2883113
:10152000884202D9032092E707E02548406800F08E
:101530000C006168B0EB810FEDD12048006800F02D
:101540000700A8420ED91D48006820F00700284374
:101550001A4908600846006800F00700A84201D058
:10156000012074E7207800F00400042807D1144813
:10157000406820F4E060E168084311494860207841
:1015800000F00800082808D10D48406820F4605099
:10159000216940EAC1000A49486000F061F8084941
:1015A0004968C1F30311074A515CC8400649086005
:1015B00006480068FFF75AFE002048E70020024076
:1015C00000100240FE5200082000002018000020F9
:1015D0000F2202600D4A526802F0030242600B4A79
:1015E000526802F0F0028260084A526802F4E06237
:1015F000C260064A526802F46052D2080261044A8C
:10160000126802F007020A607047000000100240F2
:1016100000200240014800687047000020000020C0
:1016200000B5FFF7F7FF04494968C1F30221034AF7
:10163000515CC84000BD0000001002400E5300087D
:1016400000B5FFF7E7FF04494968C1F3C221034A27
:10165000515CC84000BD0000001002400E5300085D
:1016600070B500210022002400230020134D69687A
:1016700001F00C05F5B1042D02D0082D19D101E0BF
:101680000F4819E00F4DC1F38346AB5D01F480357F
:1016900055B10A4D6D68C5F340450B4E725D084D5E
:1016A0005D43B5FBF2F402E0084D03FB05F4204670
:1016B00002E000BF024800BF00BF70BD0010024042
:1016C00000127A00EC520008FC52000800093D00AC
:1016D000F8B504460CB90120F8BD207800F00100EF
:1016E000002878D0F848406800F00C0004280CD09E
:1016F000F548406800F00C00082811D1F248406815
:1017000000F48030B0F5803F0AD1EF48006800F463
:10171000003000285FD0606800285CD10120DBE742
:1017200000BF6068B0F5803F06D1E748006840F42C
:101730008030E549086028E0606858B9E2480068F0
:1017400020F48030E04908600846006820F48020DA
:1017500008601AE06068B0F5A02F0BD1DA48006885
:1017600040F48020D84908600846006840F4803082
:1017700008600AE0D448006820F48030D24908604C
:101780000846006820F48020086000BF606888B1C7
:10179000FFF746FD054606E0FFF742FD401B6428C3
:1017A00001D9032098E7C848006800F400300028F9
:1017B000F2D010E0FFF734FD054606E0FFF730FDFC
:1017C000401B642801D9032086E7BF48006800F465
:1017D00000300028F2D1207800F00200022857D112
:1017E000B948406800F00C0050B1B748406800F0BC
:1017F0000C00082818D1B448406800F4803098B92B
:10180000B148006800F0020020B12069012801D031
:10181000012061E7AC48006820F0F800616940EA07
:10182000C100A949086033E02069E8B10120A74957
:101830000860FFF7F5FC054606E0FFF7F1FC401BEA
:10184000022801D9032047E79F48006800F0020002
:101850000028F2D09C48006820F0F800616940EA56
:10186000C1009949086013E0002098490860FFF71B
:10187000D7FC054606E0FFF7D3FC401B022801D940
:10188000032029E79048006800F002000028F2D108
:10189000207800F0080008282DD1A069B8B10120F7
:1018A0008B490860FFF7BCFC054606E0FFF7B8FC73
:1018B000401B022801D903200EE78348406A00F04C
:1018C00002000028F2D0012000F0D2FF13E0002037
:1018D0007F490860FFF7A4FC054606E0FFF7A0FC7F
:1018E000401B022801D90320F6E67748406A00F041
:1018F00002000028F2D1207800F00400042873D1FF
:1019000000277148C06900F0805070B900BF6E4870
:10191000C06940F080506C49C8610846C06900F059
:101920008050009000BF00BF01276A48006800F4A3
:101930008070B0B96748006840F4807065490860FD
:10194000FFF76EFC054606E0FFF76AFC401B6428C3
:1019500001D90320C0E65F48006800F480700028C9
:10196000F2D000BFE068012806D15748006A40F075
:1019700001005549086227E0E06858B95248006AFA
:1019800020F00100504908620846006A20F0040077
:10199000086219E0E06805280BD14B48006A40F066
:1019A0000400494908620846006A40F001000862E4
:1019B0000AE04548006A20F00100434908620846F1
:1019C000006A20F00400086200BFE068A0B1FFF7E1
:1019D00027FC054609E0FFF723FC401B41F2883154
:1019E000884202D9032077E622E03748006A00F0F7
:1019F00002000028EFD012E0FFF712FC054608E0D5
:101A0000FFF70EFC401B41F28831884201D90320C8
:101A100062E62D48006A00F002000028F0D1012F94
:101A200005D12948C06920F080502749C86100BF0E
:101A3000E069C8B32448406800F00C00082860D072
:101A4000E069022848D1002020490866FFF7E8FB3A
:101A5000054606E0FFF7E4FB401B022801D90320FE
:101A60003AE61948006800F000700028F2D1206AB8
:101A7000B0F5803F07D11448406820F40030A168D9
:101A8000084311494860D4E9080108430E494968F0
:101A900021F4741108430C49486001200B49086681
:101AA000FFF7BEFB054607E03DE0FFF7B9FB401B33
:101AB000022801D903200FE60348006800F00070F7
:101AC0000028F2D02FE00000001002400000424247
:101AD0008004424200700040002014490866FFF76D
:101AE0009FFB054606E0FFF79BFB401B022801D940
:101AF0000320F1E50E48006800F000700028F2D1E4
:101B000011E0E069012800D1E6E50948466806F4DD
:101B10008031206A814204D106F47011606A8142EA
:101B200001D00120D8E50020D6E5000000004242A7
:101B3000001002407047704710B504460CB90120F0
:101B400010BD94F83D0028B9002084F83C002046E0
:101B500000F025F8022084F83D00211D206800F0E7
:101B6000DDFE012084F8460000BF84F83E0001211C
:101B70003F200155402001554120015500BF00BFC5
:101B8000012084F84200432001554420015545209E
:101B9000015500BF012084F83D000020D0E77047C8
:101BA000014691F83D00012801D001207047022034
:101BB00081F83D000868C06840F001000B68D860FB
:101BC000164B0868984213D0154B086898420FD0FE
:101BD0000868B0F1804F0BD0124B0868984207D0CC
:101BE000114B0868984203D0104B086898420CD1FA
:101BF0000868806800F00702062A0CD008680068B0
:101C000040F001000B68186005E00868006840F0CB
:101C100001000B6818600020C8E70000002C01409C
:101C2000003401400004004000080040000C004067
:101C3000704770B504462068C5682068066906F0DC
:101C40000200022819D105F00200022815D1401F18
:101C500021680861012020772068806900F0030076
:101C600018B12046FFF7E4FF05E0204600F097F8A2
:101C7000204600F095F80020207706F004000428A4
:101C800019D105F00400042815D1C043216808616A
:101C9000022020772068806900F4407018B1204647
:101CA000FFF7C6FF05E0204600F079F8204600F077
:101CB00077F80020207706F00800082819D105F0F1
:101CC0000800082815D1C043216808610420207746
:101CD0002068C06900F0030018B12046FFF7A8FF94
:101CE00005E0204600F05BF8204600F059F800209F
:101CF000207706F01000102819D105F010001028E8
:101D000015D1C04321680861082020772068C06988
:101D100000F4407018B12046FFF78AFF05E0204626
:101D200000F03DF8204600F03BF80020207706F058
:101D3000010048B105F0010030B16FF001002168E9
:101D40000861204600F02EF806F08000802809D1B6
:101D500005F08000802805D1C04321680861204635
:101D6000FFF7E8FE06F04000402809D105F04000EA
:101D7000402805D1C04321680861204600F01EF8C4
:101D800006F02000202809D105F02000202805D1E8
:101D9000C043216808612046FFF7CDFE70BD704743
:101DA0007047000010B5044603492068884201D1FD
:101DB000FFF73CFA10BD00000014004070472DE909
:101DC000F84F04460F4690461D46DDF828A094F8CB
:101DD0004200202878D117B1B8F1000F02D10120BC
:101DE000BDE8F88F00206064222084F842000120C2
:101DF000206300206063FFF713FA8346A4F82C8069
:101E0000A4F82E80A068B0F5805F04D1206910B9D5
:101E10000026B94602E03E464FF000090020288027
:101E200053E02068006800F01000102813D100BFB4
:101E300000200090206800680090206840680090B2
:101E400000BF00BF288830B102206063202084F8E2
:101E500042000020C4E72068006800F0200020282D
:101E600021D146B920684068C0F30800A9F80000F5
:101E700009F1020911E0A068B0F5805F03D0A06805
:101E800028B9206918B920684068307004E02068DB
:101E9000406800F07F003070761C2888401C288045
:101EA000E08D401EE0850AF1010070B1FFF7B8F93E
:101EB000A0EB0B00504502D8BAF1000F05D120204D
:101EC00084F8420003208BE70BE0E08D0028A8D1C6
:101ED000A08DE18D401A2880202084F84200002047
:101EE0007EE702207CE7F8B504460E46174694F8D4
:101EF000420020282ED106B10FB90120F8BD0120E3
:101F00002063002060633A463146204600F0B0FE70
:101F10000546EDB9206B012819D100BF00200090C3
:101F200020680068009020684068009000BF00BFF3
:101F300000BF00BF21680C3151E8001F41F01000C4
:101F400021680C3141E80002002AF3D100E00125AC
:101F50002846D3E70220D1E738B505460C461D498F
:101F60002868884235D11C4804801C4800881A49DA
:101F70000988084419490880FEF78AFF00F0CCFA66
:101F800000F006FBFEF722FF4FF400711448FEF745
:101F900062F900BF002000901248006800680090BD
:101FA000104800684068009000BF00BF00BF0020DC
:101FB00000900C480068006800900A48006840687B
:101FC000009000BF00BF4FF4007205490548FFF7BD
:101FD0008AFF38BD004C0040A4000020A60000206D
:101FE000CC1A0020C0000020704700002DE9F84FF7
:101FF0000446206805682068C668206847694FF075
:102000000009CA4605F00F09B9F1000F0AD105F021
:10201000200038B106F0200020B1204600F02CFD51
:10202000BDE8F88FB9F1000F7BD007F0010018B9B7
:1020300006F49070002874D005F0010030B106F469
:10204000807018B1606C40F00100606405F004001D
:1020500030B107F0010018B1606C40F0020060641C
:1020600005F0020030B107F0010018B1606C40F0DB
:102070000400606405F0080048B106F0200010B9C3
:1020800007F0010018B1606C40F008006064606CFB
:10209000002845D005F0200028B106F0200010B13E
:1020A000204600F0E9FC20684069C0F3801A606CAB
:1020B00000F0080010B9BAF1000F2CD0204600F053
:1020C00095FC2068406900F0400000B300BF00BFED
:1020D0002168143151E8001F21F0400021681431BB
:1020E00041E80002002AF3D100BFE06B50B177480D
:1020F000E16B4863E06BFEF72BFB88B1E06B416B53
:1021000088470DE02046FFF76FFF09E009E0204611
:10211000FFF76AFF04E02046FFF766FF00206064D7
:102120007EE7206B012877D105F01000002873D0DE
:1021300006F010000028FAD000BF002000902068B0
:102140000068009020684068009000BF00BF2068D1
:10215000406900F0400000285FD0E06B00684068F4
:102160001FFA80F8B8F1000F55D0A08D404552DD20
:10217000A4F82E80E06B8069202843D000BF00BF08
:1021800021680C3151E8001F21F4807021680C3166
:1021900041E80002002AF3D100BF00BF00BF216860
:1021A000143151E8001F21F001002168143141E889
:1021B0000002002AF3D100BF00BF00BF2168143124
:1021C00051E8001F21F040002168143141E800026D
:1021D000002AF3D100BF202084F8420000202063B1
:1021E00000BF00BF21680C3151E8001F21F0100032
:1021F00021680C3141E80002002AF3D100BFE06BF6
:10220000FEF77AFA02206063A08DE28D801A81B217
:102210002046FFF7A1FE03E742E0A08DE18D401AC2
:102220001FFA80F8E08DD0B3B8F1000F37D000BFAF
:1022300000BF21680C3151E8001F21F49070216823
:102240000C3141E80002002AF3D100BF00BF00BFFB
:102250002168143151E8001F21F001002168143178
:1022600041E80002002AF3D100BF202084F8420098
:102270000020206300BF00BF21680C3151E8001F1F
:1022800021F0100021680C3141E80002002AF3D14E
:1022900000BF0220606341462046FFF75DFEBFE6B7
:1022A00005F0800030B106F0800018B1204600F043
:1022B000FFFCB5E605F0400030B106F0400018B173
:1022C000204600F0C9FBABE600BFA9E6D92900080B
:1022D00010B504460CB9012010BDA06900B100E0A2
:1022E00000BF94F8410028B9002084F8400020463F
:1022F00000F02AF8242084F841002068C06820F407
:1023000000502168C860204600F034FC2068006955
:1023100020F49040216808612068406920F02A007C
:10232000216848612068C06840F400502168C86096
:1023300000206064202084F8410084F842000020DE
:10234000606300BFC8E7000010B586B004460020F7
:10235000029003900490059037492068884269D123
:1023600000BF3648C06940F400203449C8610846BF
:10237000C06900F40020019000BF00BF00BF084604
:10238000806940F0100088610846806900F0100004
:10239000019000BF00BF08150290022003900320A7
:1023A000059002A92648FEF78BFD4FF400600290CD
:1023B00000200390049002A92148FEF781FD2148E6
:1023C000214908600020486000211F488160802169
:1023D000C1600021016141618161C161FEF758FC6A
:1023E00008B1FEF7D4F800BF1748E063446200BFAD
:1023F000144828301549086010204860002113480F
:1024000081608021C1600021016141618161C16100
:10241000FEF73EFC08B1FEF7BAF800BF0B48A06318
:10242000446200BF00220A213420FEF7B9FF3420A5
:10243000FEF7A6FF06B010BD004C004000100240A1
:102440000010014030040240080100204C0100202F
:1024500070472DE9F84F04460E46174699464FF04F
:10246000000A94F84100202850D106B117B9012084
:10247000BDE8F88F00206064212084F84100FEF759
:10248000CFFE8246A784E784A068B0F5805F04D1C0
:10249000206910B90025B04602E035464FF000082B
:1024A0001EE05346002280212046CDF8009000F027
:1024B0002FFC20B1202084F841000320D8E745B943
:1024C000B8F80000C0F308002168486008F102086D
:1024D00003E02878216848606D1CE08C401EE08491
:1024E000E08C0028DDD15346002240212046CDF863
:1024F000009000F00DFC20B1202084F84100032062
:10250000B6E7202084F841000020B1E70220AFE7C1
:10251000704700BFFEE7000070B586B000240025BC
:10252000002014E0174A1268174B1A44115CFF2967
:102530000BD00124134A12681A440244114B1B8821
:102540000344C3F30A03D51A05E0411C88B20F49BE
:1025500009888842E6DB00BF8CB100200290012090
:102560000390049505900020019001A902A8FEF7B0
:10257000D5FB18B1FEF72AFC06B070BD00BF00BF46
:10258000FAE70000A800002000800008A400002056
:1025900010B527490988274A1278881800EBD071AE
:1025A0004910A0EB4101D1B92248007850B100F0A8
:1025B00049F8214801681E480088401C08441E490B
:1025C000086008E000F06CF81B48006818490988AA
:1025D00008441949086000201649087027E015488A
:1025E000007880B100F02EF811480088401E134991
:1025F000085C13490870104800680D4909880844B0
:102600000D49086010E000F04BF809480088401EB2
:102610000A49085C0A49087005480088401E0649B6
:10262000096808440449086001200249087010BD87
:10263000A4000020AD000020A8000020CC1A00203B
:10264000AC00002070B500241AE010480068104962
:102650000844061934B90F48005D0F49097841EA6A
:10266000002505E0601E0B49085C095D40EA012574
:102670002A46002331460120FEF7B2FBA01C84B29B
:10268000064800888442E0DB70BD0000A8000020FE
:1026900000800008CC1A0020AC000020A40000201C
:1026A00070B5002418E00F4800680F490844061967
:1026B000601C0E49098888420CDA0D48015D02460B
:1026C000601C105C41EA00252A46002331460120A7
:1026D000FEF786FBA01C84B2044800888442E2DB3B
:1026E00070BD0000A800002000800008A4000020A9
:1026F000CC1A002008B500BF0E48406940F0020027
:102700000C4948610846406900F00200009000BF93
:1027100000BF002205213A20FEF742FE3A20FEF7D4
:102720002FFE002205213B20FEF73AFE3B20FEF75C
:1027300027FE08BD0010024010B50E4A00210E48C9
:1027400000F028FE0D4908600D4A00210D4800F0F8
:1027500021FE0D4908600D4A00210D4800F01AFEC7
:102760000C4908600C4A00210C4800F013FE0C498B
:10277000086010BD5C520008992800080400002081
:10278000805200089932000808000020A452000876
:10279000E13F00080C000020C8520008EB3F000891
:1027A0001000002000B585B0002001900290039039
:1027B000049000BF1C48806940F010001A498861ED
:1027C0000846806900F01000009000BF00BF00BF05
:1027D0000846806940F0200088610846806900F062
:1027E0002000009000BF00BF00BF0846806940F095
:1027F000040088610846806900F00400009000BF72
:1028000000BF00220C210948FEF704FD0C200190B6
:1028100001200290002003900220049001A90348A7
:10282000FEF74EFB05B000BD001002400010014055
:1028300010B50B480B4908604FF4964048600021E2
:1028400008488160C16001610C2141610021816102
:10285000C161FFF73DFD08B1FDF799FE10BD000015
:10286000004C0040C000002000BFFEE700BFFEE7B4
:1028700008B508490968C9084FF47A72B1FBF2F14A
:102880004143009100BF00BF00994A1E00920029F9
:10289000F9D108BD2000002000BF012000F024FD78
:1028A000FBE710B54FF0E020006902F081FA012843
:1028B00001D001F0CBFE10BD00B58FB0282105A8D6
:1028C000FDF7C9FC14216846FDF7C5FC0220059000
:1028D0000120099010200A9000200C9005A8FEF716
:1028E000F7FE08B1FDF753FE0F2000900020019085
:1028F00002900390049000216846FEF7A3FD08B102
:10290000FDF745FE0FB000BD7047000010B502484E
:10291000FFF78FF910BD00009001002010B502688C
:10292000244B98420ED0244B98420BD0B0F1804FEC
:1029300008D0224B984205D0214B984202D0214B1F
:10294000984203D122F070024B681A43194B984207
:102950000ED0194B98420BD0B0F1804F08D0174BD6
:10296000984205D0164B984202D0164B984203D19C
:1029700022F44072CB681A4322F080034C6943EA88
:10298000040202608B68C3620B688362094B984241
:1029900002D0094B984201D10B69036301234361C3
:1029A000036903F001031BB1036923F00103036111
:1029B00010BD0000002C0140003401400004004024
:1029C00000080040000C004010B50248FFF70EFB65
:1029D00010BD0000C000002070B505466C6A0020E4
:1029E000E085E0842046FFF7FFFA70BD00BF00BF1E
:1029F00002680C3252E8002F22F4907102680C3207
:102A000042E80013002BF3D100BF00BF00BF0268F3
:102A1000143252E8002F22F001010268143242E819
:102A20000013002BF3D100BF016B01290ED100BFB1
:102A300000BF02680C3252E8002F22F01001026839
:102A40000C3242E80013002BF3D100BF202180F8A4
:102A5000421000210163704710B504462068C06829
:102A600020F040002168C860202084F84100204602
:102A7000FFF74EFD002010BDF8B5044694F8420063
:102A8000222875D1A068B0F5805F0CD1206950B9BB
:102A90000025A66A20684068C0F308003080A06A5C
:102AA000801CA06215E0A56A0026A068B0F5805FD2
:102AB00003D0A06828B9206918B920684068287038
:102AC00004E02068406800F07F002870A06A401C85
:102AD000A062E08D401E80B2E085002846D12068CB
:102AE000C06820F020002168C8602068C06820F419
:102AF00080702168C8602068406920F0010021686A
:102B00004861202084F8420000206063206B012887
:102B100026D10020206300BF00BF21680C3151E89E
:102B2000001F21F0100021680C3141E80002002A4A
:102B3000F3D100BF2068006800F0100010280AD10F
:102B400000BF002000902068006800902068406866
:102B5000009000BF00BFA18D2046FFF7FDF902E005
:102B60002046FFF775FC0020F8BD01E00020FBE7E0
:102B70000220F9E770B504462168096921F4405143
:102B8000E2681143226811612269A16811436269F8
:102B900041EA02052168C96841F20C629143294368
:102BA0002268D1602168496921F44071A26911430A
:102BB000226851612D4A2168914202D1FEF740FD01
:102BC00001E0FEF72DFD00EBC00101EB0011626892
:102BD0009200B1FBF2F100EBC00202EB001263685D
:102BE0009B00B2FBF3F26423B2FBF3F202EBC203ED
:102BF00003EB0212A1EB8201322202EB01116422EB
:102C0000B1FBF2F101F0F00100EBC00202EB0012A7
:102C100063689B00B2FBF3F26423B2FBF3F201EBB7
:102C2000021200EBC00101EB001163689B00B1FBD5
:102C3000F3F100EBC00303EB00136668B600B3FBCF
:102C4000F6F36426B3FBF6F303EBC30606EB0313BC
:102C5000A1EB8301322303EB01116423B1FBF3F1F8
:102C600001F00F0111442268916070BD00380140ED
:102C700010B5034699629A85DA85002058642220AF
:102C800083F84200186928B11868C06840F4807061
:102C90001C68E0601868406940F001001C686061D1
:102CA0001868C06840F020001C68E060002010BD7B
:102CB000014691F84100212828D18868B0F5805F4D
:102CC0000BD1086948B90A6A1088C0F308000B687C
:102CD0005860086A801C086205E00B6A581C08628C
:102CE00018780B685860C88C401E80B2C88458B9E8
:102CF0000868C06820F080000B68D8600868C06869
:102D000040F040000B68D860002070470220FCE7CC
:102D10002DE9F84304460D4617469846089E31E0D3
:102D2000701C70B3FEF77CFAA0EB0800B04200D82C
:102D300016B90320BDE8F8832068C06800F00400DD
:102D4000F8B1802D1ED0402D1CD020680068C0F343
:102D5000C000B0B100BF0020009020680068009063
:102D600020684068009000BF00BF2046FFF73EFE8D
:102D70000820606400BF002084F8400000BF0120EC
:102D8000D8E7FFE7206800682840A84201D1012069
:102D900000E00020B842C3D00020CBE700BFFEE730
:102DA0000FB4054B10B503A9044A029800F03AF895
:102DB00010BC5DF814FB00007D320008B800002054
:102DC00002480068C0F30220704700000CED00E0EC
:102DD00010B5002804DB0A07130E054A135406E059
:102DE0000A07140E034A00F00F031B1FD45410BD32
:102DF00000E400E018ED00E000487047BC0000204F
:102E0000EFF30580704702E008C8121F08C1002ACE
:102E1000FAD170477047002001E001C1121F002A5B
:102E2000FBD170472DE9FF4F8DB00F4605460026B8
:102E300006E025280BD0DDE90F1290476D1C761CAB
:102E400028780028F5D111B03046BDE8F08F002475
:102E5000A246A1460122E94900E0044315F8013FDA
:102E6000203B02FA03F00842F7D128782A2810D034
:102E70006FF02F022878A0F13001092914D80AEB4D
:102E80008A0102EB410144F0020400EB010A6D1CCF
:102E9000F0E701CF5FEA000A03D544F40054CAF119
:102EA000000A44F002046D1C28782E2817D115F86A
:102EB000010F44F004042A280ED06FF02F02287866
:102EC000A0F1300109290AD809EB890102EB41017F
:102ED00000EB01096D1CF2E757F8049B6D1C287884
:102EE0006C280FD006DC4C2817D068280DD06A2833
:102EF00014D104E0742810D07A280FD10DE044F4E6
:102F000000140AE044F4801401E044F440146978A9
:102F1000814202D104F580146D1C6D1C28786E2846
:102F20001ED00CDC632830D004DC00288BD058285D
:102F300011D19FE0642867D069280CD164E0732820
:102F40002DD004DC6F2872D0702804D194E075284D
:102F50006ED078286DD0DDE90F129047761C4BE1DA
:102F6000C4F30250022806D0032809D0042801CF58
:102F700009D0066040E101CFF117C0E900613BE1F3
:102F800001CF068038E1067036E117F8040B8DF8A2
:102F9000000000208DF80100EB46012003E057F807
:102FA00004BB4FF0FF3061074FF0000102D40DE089
:102FB00008F10101884649450FDA8045F8DB1BF826
:102FC00008100029F4D108E008F101018846814287
:102FD000FADB1BF808100029F6D1DDE90F23AAEB74
:102FE00008008146214600F031F9304400EB080624
:102FF00004E0DDE90F121BF8010B9047B8F101085E
:10300000F7D221464846F2E00A21C4F302524FF0BB
:10301000000B0891022A04D001CFC117032A09D05E
:103020000AE0FF1D27F00707F7E8020108E02CE09F
:103030001EE01FE000B2C117042A01D140B2C1173F
:10304000021E71F1000206DA0023D0EB030063EBED
:1030500001012D2202E0220504D52B228DF8242027
:10306000012203E0E20701D02022F7E7904653E077
:103070000A210BE0102109E010214FF0000B44F071
:1030800004044FF00809089103E008214FF0000BF9
:103090000891C4F30252022A04D001CF0021032A6E
:1030A00006D006E0FF1D27F00707F7E8020103E05E
:1030B00080B2042A00D1C0B24FF0000822072BD5FD
:1030C0002A78702A07D0DDF820C08CF0100C5CEA5A
:1030D0000B0C05D00EE040228DF82420012208E0E0
:1030E00050EA010306D030238DF824308DF82520D6
:1030F00002229046089B83F0080353EA0B030BD18E
:1031000050EA010201D1620706D530228DF8242051
:103110004FF00108A9F101092A78582A04D038A2F1
:103120000B9208AA0A920BE03AA2F9E75B46089ACA
:10313000FDF7BBF80B9B9B5C0A9A521E0A92137018
:1031400050EA0102F2D10A98ADEB000000F1200B29
:10315000600702D524F4803401E04FF00109D9451D
:1031600002DDA9EB0B0000E0002000EB0B01414465
:103170000890AAEB010AE00306D4DDE90F232146FB
:10318000504600F063F806444FF0000908E009A932
:1031900011F80900DDE90F12904709F10109761CC9
:1031A000C145F4DBE0030CD5DDE90F232146504691
:1031B00000F04CF8064404E0DDE90F12302090479F
:1031C000761C0899481E08900029F5DC08E00A984A
:1031D0000A990078491C0A91DDE90F129047761C84
:1031E000BBF10001ABF1010BF1DC21465046DDE9FA
:1031F0000F2300F019F806446D1C21E60928010090
:10320000303132333435363738396162636465665C
:10321000000000003031323334353637383941421E
:1032200043444546000000002DE9F04104460025D6
:103230001E461746880404D405E039462020B047CE
:103240006D1C641EF9D52846BDE8F0812DE9F041DA
:10325000044600251E469046C80301D5302700E0ED
:103260002027880404D505E041463846B0476D1C48
:10327000641EF9D52846BDE8F081000013B50C4660
:103280004FF6FF73012269460248FFF7E2F8009803
:103290001CBD0000C000002000BF04210548FDF750
:1032A000AFFF08210348FDF7ABFF4FF4FA7000F0C1
:1032B0001BF8F2E700100140FDF7C4FFFFF7FCFA2E
:1032C000FFF770FAFFF716FAFFF7B2FAFDF7DAF830
:1032D00000F01AF8FFF730FA00F02CF803E040F69F
:1032E000B83000F001F8FAE770B50546FFF788FD41
:1032F00010B16FF0050404E0002415B1284601F078
:1033000001F8204670BD000010B5FFF779FD10B13F
:103310006FF0050409E00648006820B9012004495F
:103320000860002401E04FF0FF34204610BD00008B
:103330007400002070B5FFF763FD10B16FF0050455
:103340001FE011480068012819D100BF801F00212B
:10335000002804DB0A07130E0C4A135406E00A0780
:10336000150E0B4A00F00F031B1FD55400BF00BF02
:1033700002200549086001F041F8002401E04FF007
:10338000FF34204670BD00007400002000E400E01F
:1033900018ED00E02DE9FF478046894614460020DD
:1033A0000390FFF72DFD00284ED1B8F1000F4BD050
:1033B000802618258246471E44B3206808B1D4F8F9
:1033C00000A0A06900B1A5692DB1382D03D82079DE
:1033D00000F0010018B1002004B0BDE8F08760697A
:1033E00008B160698608A06840B1E0685C2805D330
:1033F000206918B1606908B1012708E0A06830B9F8
:10340000E06820B9206910B9002700E00027012FEB
:103410000CD12169A0684B463246CDE9005102909B
:103420005146404601F066FC03900DE067B903A8E1
:10343000B2B24B465146CDE90050404601F028FC5F
:10344000012801D0002003900398C5E72DE9F04141
:1034500005460E461648076816480068001D00F02D
:10346000C9FD681C38B936B112480168091D1248F7
:1034700000F016FE1AE07C190E4800684460BC4259
:1034800007D20C480168091D0C48006800F0EEFDE9
:103490000CE008480168091D0948006800F0E6FDD5
:1034A00008480068844201D206480460BDE8F08103
:1034B0003800002024000020E80600202C00002016
:1034C000280000205400002010B5044600F0F4FD50
:1034D00024480068401C234908602348006840B91C
:1034E000214804600846006801280DD100F0FCF96D
:1034F0000AE01E48006838B91B480068C06AE16AE3
:10350000884201D81848046019480068401C1849CE
:1035100008600846006860641649E06A09688842E5
:1035200002D91449E06A0860E16A01EB8101124A9C
:1035300002EB8100211D00F0B3FD00F0E7FD0B4818
:10354000006868B108480068C06AE16A884207D22A
:103550004FF0805009490860BFF34F8FBFF36F8F62
:1035600010BD000034000020240000204000002096
:10357000500000203C0000203802002004ED00E054
:1035800008B500F099FD12480068E8B9114800F04C
:103590005DFD114800F05AFD0E48104908600E48C4
:1035A0000F49086000200F4B0F4A102100900A209D
:1035B00001F066F8064908600846006820B10BA1D2
:1035C0000348006800F062FE00F0A0FD08BD0000A6
:1035D00068000020FC06002010070020600000208A
:1035E000640000202407002074070020546D7251ED
:1035F0000000000010B516E000F05EFD0C48C06849
:10360000C468201D00F0F6FC0A480068401E094905
:10361000086009480068401E0749086000F076FD10
:10362000204600F05FF8044800680028E4D110BD8F
:10363000D4060020340000203000002070B504467D
:103640000D46206C70B1216CE0680144E160D4E962
:103650000210884201D32168E1602846226CE168AB
:10366000FCF7E0FD70BD2DE9F04104460F4615461C
:103670004FF00008A66B206C48B9206800282CD1B8
:10368000A06801F04DFC80460020A06025E07DB9D7
:103690003946226C6068FCF7C5FD216C60680844FF
:1036A0006060D4E90101884217D32068606014E0AB
:1036B0003946226CE068FCF7B5FD216CE068411AE0
:1036C000E1602168E068884203D2216CA068411A59
:1036D000E160022D01D106B1761E701CA063404648
:1036E000BDE8F08110B5044694F8590030B9206B5C
:1036F00000F02AFD204600F027FD1AE094F859005A
:10370000012803D1204600F01FFD12E094F8590073
:10371000022801D1012000E0002050B900BF502054
:1037200080F31188BFF34F8FBFF36F8F00BF00BFCF
:10373000FEE710BD0146084A126812680AB9012264
:1037400000E000220A600A6822B9034A1268D268BF
:10375000106800E0002070476000002030B54FF492
:103760004063174800F007042CB1C01D20F007008B
:10377000134C041B1B1B0246124C22600024114DEB
:103780006C60D018083820F007000F4C206000242F
:103790000D4D2D686C600C4D2D682C601146441A3F
:1037A0004C60094C24680C60084D4C682C60084D36
:1037B0004C682C604FF00044064D2C6030BD00007A
:1037C000CC0E00207800002080000020880000201F
:1037D000840000209400002000BFFFF70BFF064884
:1037E00000680128F9D94FF0805004490860BFF300
:1037F0004F8FBFF36F8FF0E73802002004ED00E039
:103800002DE9F04106460D4617469846069C0DB92F
:10381000246000E02760E66325640121204600F073
:103820009FFF84F84C80BDE8F0812DE9F05F82466F
:103830000E4690469B460A9F0C9C4FEA8801A522A3
:10384000206BFCF701FDA8F10100216B01EB800961
:1038500029F0070909F0070008B9012000E000205D
:1038600050B900BF502080F31188BFF34F8FBFF3D2
:103870006F8F00BF00BFFEE786B1002507E0715DD6
:1038800004F134004155705D00B902E06D1C102D4B
:10389000F5D300BF00214320015502E0002084F849
:1038A0003400382F00D33727E762E7640020206513
:1038B000201D00F0D8FB04F1180000F0D4FB2461B7
:1038C000C7F13800A06164620020606584F8580088
:1038D0005A465146484600F071FB20600B9808B1EB
:1038E0000B980460BDE8F09F10B5002407E004EBDE
:1038F00084010F4A02EB810000F0A8FB641C382C05
:10390000F5D30C4800F0A2FB0B4800F09FFB0B48DE
:1039100000F09CFB0A4800F099FB0A4800F096FB77
:1039200004480949086004480849086010BD0000BF
:103930003802002098060020AC060020C0060020B7
:10394000D4060020E8060020280000202C000020DB
:1039500010B50146164800E0006803688B42FBD3AF
:103960000246436813448B4204D143684C682344A5
:10397000436001460A464B6813440468A34211D1D0
:103980000C4C03682468A34208D04B680468646840
:1039900023444B6003681B680B6005E0054B1B6804
:1039A0000B6001E003680B60884200D0016010BD2D
:1039B00078000020800000202DE9F04104460D46EB
:1039C00016461F464FF0000865602461B5420CD8CA
:1039D000F01BA169884202D34FF0010811E0211DBC
:1039E0000948006800F042FB0BE0BE4204D2BD4231
:1039F00002D34FF0010804E0211D0448006800F0E4
:103A000035FB4046BDE8F0816400002060000020E6
:103A100070B5054600F050FBA86B08B9012400E022
:103A2000002400F073FB204670BD70B5054600F021
:103A300043FBA86BE96B884201D1012400E000241C
:103A400000F064FB204670BDF8B505460F461A48E5
:103A50000068C068C468201D00F0CCFA94F8280003
:103A600000F00400E8B1A06941192B463A4620460F
:103A7000FFF7A2FFD8B1002003462A460146009076
:103A8000204601F0A9FB064656B900BF502080F33E
:103A90001188BFF34F8FBFF36F8F00BF00BFFEE7EA
:103AA00005E094F8280020F0010084F82800204662
:103AB000216A8847F8BD000060000020F0B587B09B
:103AC000A0E00398002811DA04AE56B900BF5020D8
:103AD00080F31188BFF34F8FBFF36F8F00BF00BF1C
:103AE000FEE7D6E90020B168904700BF03980028A0
:103AF000E6DB059C606908B9012000E0002010B9F0
:103B0000201D00F077FA02A800F0DEF805460398C1
:103B10000A2875D2DFE800F0090507394163060875
:103B20003A4200BF00BF00BF00BF94F8280040F039
:103B3000010084F828000498A269811803462A46E7
:103B40002046FFF739FFF8B12046216A884794F8EC
:103B5000280000F00400B8B1002000900498A1698A
:103B6000421800231946204601F036FB074657B994
:103B700000BF502080F31188BFF34F8FBFF36F8FCA
:103B800000BF00BFFEE700BF3BE000BF94F8280085
:103B900020F0010084F8280033E000BF94F82800EA
:103BA00040F0010084F828000498A061A06908B1E1
:103BB000012000E0002050B900BF502080F31188A0
:103BC000BFF34F8FBFF36F8F00BF00BFFEE7A06949
:103BD00041192B462A462046FFF7EEFE11E094F8E5
:103BE000280000F0020018B9204600F0ADFA05E008
:103BF00094F8280020F0010084F8280001E0FFE795
:103C000000BF00BF002203A90448006800F046FF7F
:103C100000287FF456AF07B0F0BD00006800002018
:103C2000F8B505460C4600F045FC684600F04CF837
:103C30000646009820BB44B9B54206D801F00EFAFA
:103C400031462846FFF700FF1CE03CB10E480068F3
:103C5000006808B9012000E000200446A91B2246A4
:103C60000A48006800F028FB01F0F8F950B94FF05D
:103C7000805007490860BFF34F8FBFF36F8F01E09B
:103C800001F0ECF9F8BD000064000020680000209D
:103C900004ED00E00A490968096809B9012100E05A
:103CA000002121B14FF0FF31064A116006E00449BE
:103CB0000968C968C868034A416811607047000014
:103CC000280000205400002070B5044601F080F860
:103CD000054607480068854204D200F00BF8012031
:103CE000206001E00020206001480560284670BD8A
:103CF000700000202DE9F84334E025480068C068D2
:103D0000056823480068C068C468201D00F072F987
:103D10002046216A884794F8280000F0040008B380
:103D2000A0694619AE4207D966602461211D184872
:103D3000006800F09BF915E0002003462A46014682
:103D40000090204601F048FA074657B900BF5020BE
:103D500080F31188BFF34F8FBFF36F8F00BF00BF99
:103D6000FEE700BF0A480068006808B9012000E0CB
:103D700000200028C1D00648D0F80080054800681F
:103D8000034908600348C0F80080BDE8F8830000DC
:103D900060000020640000200E480068401C08B944
:103DA000012000E0002050B900BF502080F31188AE
:103DB000BFF34F8FBFF36F8F00BF00BFFEE700BFA1
:103DC000502080F31188BFF34F8FBFF36F8F00BF78
:103DD00000BFFEE79800002008B500BF6846FFF767
:103DE000A9FC044620460099FFF71AFFFFF766FE7C
:103DF000F4E770B5044600F05FF994F9455010E01F
:103E0000606A08B9012000E0002038B904F12400FC
:103E100001F0D8F818B100F0AFFA00E003E0681E36
:103E200045B2002DECDC00BFFF2084F8450000F017
:103E30006DF900F041F994F9445010E0206908B997
:103E4000012000E0002048B904F1100001F0BAF8A8
:103E500008B100F091FA681E45B200E001E0002DC3
:103E6000ECDC00BFFF2084F8440000F04FF970BD87
:103E70002DE9F04104464FF0000800F01BFB4948D3
:103E8000006808B9FFF76AFC47480068204000282E
:103E900070D1D4B1083404F00700B0B104F00700C9
:103EA000C0F10800044404F0070008B9012000E054
:103EB000002050B900BF502080F31188BFF34F8F0E
:103EC000BFF36F8F00BF00BFFEE7002C52D0374812
:103ED000006884424ED8364E3046056801E02E46D2
:103EE0002D686868A04202D228680028F7D12D48C2
:103EF000006885423ED0306800F1080828683060CC
:103F00006868001B102819D92F1907F0070008B995
:103F1000012000E0002050B900BF502080F311883C
:103F2000BFF34F8FBFF36F8F00BF00BFFEE768681E
:103F3000001B78606C603846FFF70AFD1B49686813
:103F40000968081A1949086008460068194909688B
:103F5000884203D21548006816490860124968680B
:103F60000968084368600020286013480068401C06
:103F70001149086001F072F808F0070008B9012043
:103F800000E0002050B900BF502080F31188BFF33B
:103F90004F8FBFF36F8F00BF00BFFEE74046BDE805
:103FA000F0810000800000209400002084000020A8
:103FB00078000020880000208C000020001F4FF0B7
:103FC00080730360001F21F001030360001F034B97
:103FD000036014380260203870470000993D0008E3
:103FE00000BF0120FFF780F9FBE700BF0120FFF7CA
:103FF0007BF9FBE701460A69D1E901309860D1E914
:10400000010358605068884201D1886850600020E0
:1040100008611068401E106010687047034B036011
:10402000034B0B60802313607047000014080020CE
:1040300070080020034B0360034B0B604FF4807348
:1040400013607047700A0020CC0A002000F10801BC
:1040500041604FF0FF31816000F10801C1600161F2
:1040600000210160704700210161704710B50246D0
:104070000B685C1C0CB9106907E002F1080000E055
:104080004068446824689C42FAD944684C604C6893
:10409000A160886041600A611468641C146010BDEE
:1040A00042684A6093688B609368596091600861C8
:1040B00003685B1C0360704700BF502080F31188C9
:1040C000BFF34F8FBFF36F8F00BF0E480068401CD7
:1040D0000C49086008460068012812D10A480068A7
:1040E000C0B208B9012000E0002050B900BF502044
:1040F00080F31188BFF34F8FBFF36F8F00BF00BFF6
:10410000FEE770479800002004ED00E00D480068CD
:1041100050B900BF502080F31188BFF34F8FBFF319
:104120006F8F00BF00BFFEE706480068401E0549CC
:1041300008600846006820B9002080F3118800BF9D
:1041400000BF70479800002070B506463546002E27
:1041500044D0083D2C46224960680968084008B1EF
:10416000012000E0002050B900BF502080F31188EA
:10417000BFF34F8FBFF36F8F00BF00BFFEE7206814
:1041800008B9012000E0002050B900BF502080F3A2
:104190001188BFF34F8FBFF36F8F00BF00BFFEE7E3
:1041A0000F49606809680840C0B12068B0B90C497F
:1041B000606809688843606000F07CF909496068BC
:1041C00009680844074908602046FFF7C1FB064814
:1041D0000068401C0449086000F040FF70BD00000A
:1041E00094000020840000209000002000204FF068
:1041F000E02108618861064800684FF47A71B0FBDD
:10420000F1F0401E4FF0E02148610720086170473F
:104210002000002070B5FBF7DFFF0446102C16D3FA
:1042200004F1E02090F8F05315480078854201DB56
:10423000012000E0002050B900BF502080F3118819
:10424000BFF34F8FBFF36F8F00BF00BFFEE70D4876
:10425000006800F4E0600C490968884201D8012038
:1042600000E0002050B900BF502080F31188BFF358
:104270004F8FBFF36F8F00BF00BFFEE770BD000020
:104280009C0000200CED00E0A00000200246002071
:104290000BE0084B53F8303033B9064B43F830107D
:1042A00003EBC0035A6002E0401C0828F1D300BFB2
:1042B00070470000F80100202DE9F04105460E4648
:1042C00017462C46FFF7F8FE94F94400401C10B93D
:1042D000002084F8440094F94500401C10B90020E7
:1042E00084F84500FFF712FFA06B28B93A46314623
:1042F00004F1240000F062F82046FFF77AFDBDE8E3
:10430000F081000070B504460025D4B11248006861
:1043100008B9012000E0002050B900BF502080F310
:104320001188BFF34F8FBFF36F8F00BF00BFFEE751
:1043300000F0C0F800212046FFF788F800F08EFE5C
:1043400005463DB94FF0805004490860BFF34F8FD8
:10435000BFF36F8F70BD00005C00002004ED00E033
:10436000034909680160034909684160704700001A
:104370004C000020380000200120014908607047EF
:104380004800002070B504460D4654B900BF5020C7
:1043900080F31188BFF34F8FBFF36F8F00BF00BF53
:1043A000FEE70548016818312046FFF75FFE01214E
:1043B0002846FFF74BF870BD2400002070B5054675
:1043C0000E46144655B900BF502080F31188BFF344
:1043D0004F8FBFF36F8F00BF00BFFEE70648016835
:1043E00018312846FFF75CFE0CB14FF0FF3621462E
:1043F0003046FFF72BF870BD2400002010B586B0C2
:1044000000200590049003AA04A905A8FFF706FE62
:104410000022DDE904101346CDE9002102901EA11F
:104420001F48039A00F066FC1E49086008460068B1
:1044300008B1012400E00024012C02D100F090FE1C
:104440000446012C15D100BF502080F31188BFF322
:104450004F8FBFF36F8F00BF4FF0FF3012490860DE
:1044600001201249086000201149086000F072F82C
:1044700010E0601C08B1012000E0002050B900BF2E
:10448000502080F31188BFF34F8FBFF36F8F00BFB1
:1044900000BFFEE706B010BD49444C4500000000D7
:1044A000D9370008580000205400002040000020A8
:1044B0003800002002480068401C0149086070472D
:1044C0005C0000201E48006818B101201D490860EA
:1044D00034E000201B4908601B4801680CE051B91A
:1044E00000BF502080F31188BFF34F8FBFF36F8F51
:1044F00000BF00BFFEE7491E01EB8100134A52F8DE
:10450000200008B9012000E000200028E7D101EBDD
:1045100081020E4B03EB820042685268426000F158
:1045200008024368934202D142685268426042687E
:10453000D268074B1A600448016000BF7047000052
:104540005C000020480000203C00002038020020D1
:10455000240000201CB53849084600780190FF204F
:104560000A4610700846007800909DF8000000F0A0
:10457000F0009DF80020904201D1012000E00020D1
:1045800050B900BF502080F31188BFF34F8FBFF3A5
:104590006F8F00BF00BFFEE79DF8000000F05000E5
:1045A000264A10700720264A106009E02448006857
:1045B000401E234A10609DF800004006000E009047
:1045C0009DF8000000F080008028EFD01C480068B3
:1045D000C0F10700042801D1012000E0002050B9FB
:1045E00000BF502080F31188BFF34F8FBFF36F8F50
:1045F00000BF00BFFEE7124800680002104A1060CA
:104600001046008800F4E06010600B4A01981070BA
:104610000C48006840F470000A49086008460068C9
:1046200040F070400860FFF7E1FD00200649086097
:10463000FBF79CFD00201CBD00E400E09C00002076
:10464000A000002020ED00E09800002010B500BF81
:10465000502080F31188BFF34F8FBFF36F8F00BFDF
:1046600000F0BCFB18B14FF080500449086000BF57
:10467000002080F3118800BF10BD000004ED00E0B1
:104680002DE9F84380460E4617461D46DDF820907A
:10469000B8F1000F01D0012000E0002050B900BFA8
:1046A000502080F31188BFF34F8FBFF36F8F00BF8F
:1046B00000BFFEE70DB1012000E0002050B900BFAF
:1046C000502080F31188BFF34F8FBFF36F8F00BF6F
:1046D00000BFFEE707B10EB1012000E0002050B995
:1046E00000BF502080F31188BFF34F8FBFF36F8F4F
:1046F00000BF00BFFEE707B90EB9012000E00020AF
:1047000050B900BF502080F31188BFF34F8FBFF323
:104710006F8F00BF00BFFEE7502000900098502828
:1047200001D1012000E0002050B900BF502080F3EB
:104730001188BFF34F8FBFF36F8F00BF00BFFEE73D
:1047400000BF2C464CB1012084F846004B463A4647
:10475000314640460094FFF753F82046BDE8F88301
:1047600070B505460E462C4654B900BF502080F364
:104770001188BFF34F8FBFF36F8F00BF00BFFEE7FD
:10478000FFF79AFCD4E90F12206801FB0200A06039
:104790000020A06320686060E06B401E226C2168EE
:1047A00000FB0211E160FF2084F8440084F845001A
:1047B0009EB9206908B9012000E00020A8B904F1E1
:1047C000100000F0FFFB80B14FF0805009490860F5
:1047D000BFF34F8FBFF36F8F07E004F11000FFF7B7
:1047E00035FC04F12400FFF731FCFFF78FFC0120BA
:1047F00070BD000004ED00E02DE9FF4383B00646E4
:1048000088461D464FF00009344654B900BF502079
:1048100080F31188BFF34F8FBFF36F8F00BF00BFCE
:10482000FEE7B8F1000F01D1206C08B9012000E0CB
:10483000002050B900BF502080F31188BFF34F8F84
:10484000BFF36F8F00BF00BFFEE7022D02D1E06B08
:10485000012801D1012000E0002050B900BF502004
:1048600080F31188BFF34F8FBFF36F8F00BF00BF7E
:10487000FEE700F09DFA08B9059808B9012000E0AC
:10488000002050B900BF502080F31188BFF34F8F34
:10489000BFF36F8F00BF00BFFEE700BFFFF70CFC48
:1048A000A06BE16B884201D3022D28D12A464146F4
:1048B0002046FEF7D8FE0746606A08B9012000E0EE
:1048C000002068B904F1240000F07CFB88B14FF0AF
:1048D000805032490860BFF34F8FBFF36F8F08E0FD
:1048E0003FB14FF080502D490860BFF34F8FBFF3A9
:1048F0006F8FFFF70BFC012007B0BDE8F083059830
:1049000018B9FFF703FC0020F6E7B9F1000F04D156
:1049100001A8FFF725FD4FF00109FFF7F7FBFFF7AF
:10492000C9FDFFF7C9FB94F94400401C10B90020F1
:1049300084F8440094F94500401C10B9002084F824
:104940004500FFF7E3FB05A901A800F05BF9F0B90A
:104950002046FFF76AF8A0B104F110000599FFF7AF
:1049600011FD2046FFF745FA00F078FB002895D1AD
:104970004FF0805009490860BFF34F8FBFF36F8F2E
:104980008CE72046FFF735FA00F068FB86E7204603
:10499000FFF72FFA00F062FB0020ADE704ED00E026
:1049A0002DE9F84F07468A4690461E463C4654B9C4
:1049B00000BF502080F31188BFF34F8FBFF36F8F7C
:1049C00000BF00BFFEE7BAF1000F01D1206C08B9AB
:1049D000012000E0002050B900BF502080F3118872
:1049E000BFF34F8FBFF36F8F00BF00BFFEE7022EF4
:1049F00002D1E06B012801D1012000E0002050B974
:104A000000BF502080F31188BFF34F8FBFF36F8F2B
:104A100000BF00BFFEE7FFF7FDFB00BF5021EFF333
:104A2000118081F31188BFF34F8FBFF36F8F00BFE9
:104A30000546A06BE16B884201D3022E25D194F983
:104A400045B0A06B0090324651462046FEF70BFE63
:104A50000BF1010088B9606A08B9012000E000206C
:104A600050B904F1240000F0ADFA28B1B8F1000FFC
:104A700002D00120C8F8000004E00BF1010040B2B0
:104A800084F845004FF0010901E04FF0000900BF34
:104A900085F3118800BF4846BDE8F88F2DE9F7413E
:104AA00083B005460E464FF000082C4654B900BFAF
:104AB000502080F31188BFF34F8FBFF36F8F00BF7B
:104AC00000BFFEE70EB9206C08B9012000E000200D
:104AD00050B900BF502080F31188BFF34F8FBFF350
:104AE0006F8F00BF00BFFEE700F062F908B90598BC
:104AF00008B9012000E0002050B900BF502080F329
:104B00001188BFF34F8FBFF36F8F00BF00BFFEE769
:104B100000BFFFF7D1FAA76BF7B131462046FEF789
:104B20008DFD781EA063206908B9012000E00020F7
:104B300060B904F1100000F045FA38B14FF0805030
:104B40002F490860BFF34F8FBFF36F8FFFF7DEFA77
:104B5000012006B0BDE8F081059818B9FFF7D6FA34
:104B60000020F6E7B8F1000F04D101A8FFF7F8FB29
:104B70004FF00108FFF7CAFAFFF79CFCFFF79CFA19
:104B800094F94400401C10B9002084F8440094F9C2
:104B90004500401C10B9002084F84500FFF7B6FA24
:104BA00005A901A800F02EF8F0B92046FEF730FF65
:104BB000A0B104F124000599FFF7E4FB2046FFF7BC
:104BC00018F900F04BFA0028A3D14FF080500C499F
:104BD0000860BFF34F8FBFF36F8F9AE72046FFF750
:104BE00008F900F03BFA94E72046FFF702F900F0DD
:104BF00035FA2046FEF70CFF00288AD00020A8E7EF
:104C000004ED00E070B505460C4655B900BF5020D4
:104C100080F31188BFF34F8FBFF36F8F00BF00BFCA
:104C2000FEE754B900BF502080F31188BFF34F8FC7
:104C3000BFF36F8F00BF00BFFEE7FFF73DFA1248DA
:104C400002686868131A2068401C08B9002617E03B
:104C50000E4928680968884204D06868904201D8E3
:104C600001260DE02068984207D92068C01A20600C
:104C70002846FFF775FB002602E000202060012691
:104C8000FFF744FA304670BD380000204C00002089
:104C90002DE9FF4F85B0804689461746DDE912AB06
:104CA000B800FFF7E5F8064656B15C20FFF7E0F8DC
:104CB00004460CB1266304E03046FFF745FA00E0F5
:104CC00000248CB1002084F85900CDE900ABCDE977
:104CD00002403A4649464046089BFEF7A6FD20465C
:104CE000FEF7F2FB012501E04FF0FF35284609B041
:104CF000BDE8F08F2DE9F04F85B007468846914614
:104D00009A46DDE90EB6109C0EB1012000E00020AD
:104D100050B900BF502080F31188BFF34F8FBFF30D
:104D20006F8F00BF00BFFEE70CB1012000E0002044
:104D300050B900BF502080F31188BFF34F8FBFF3ED
:104D40006F8F00BF00BFFEE75C20039003985C28D4
:104D500001D1012000E0002050B900BF502080F3B5
:104D60001188BFF34F8FBFF36F8F00BF00BFFEE707
:104D700000BFB4B1AEB125462C462E63022085F8A3
:104D80005900002004A953464A46CDE900B1CDE9B7
:104D9000025041463846FEF748FD2846FEF794FB90
:104DA00001E000200490049805B0BDE8F08F0000F9
:104DB0000549096809B9012005E00449096809B9EC
:104DC000022000E000207047400000205C0000202E
:104DD0000149086870470000380000202DE9F041C3
:104DE0004FF000084348006800287BD14248006823
:104DF000451C4148056015BB40480068006808B97B
:104E0000012000E0002050B900BF502080F311883D
:104E1000BFF34F8FBFF36F8F00BF00BFFEE7374870
:104E200007683748006835490860354807603548E5
:104E30000068401C33490860FEF72CFF00BF324871
:104E4000006885423BD300BF2C480068006808B961
:104E5000012000E0002020B14FF0FF302A49086017
:104E60002CE026480068C068C4686668B54202D273
:104E70002548066022E0201DFFF7BCF8A06A18B1A3
:104E800004F11800FFF7B6F82049E06A0968884283
:104E900002D91E49E06A0860E16A01EB81011C4AFF
:104EA00002EB8100211DFFF7FBF81A49E06A09684F
:104EB000C96A8842C8D34FF00108C5E700BF15484A
:104EC0000068C06A00EB8000114951F820000128F9
:104ED00001D94FF001081048006808B14FF00108EF
:104EE00005E0FFE70D480068401C0C49086040469B
:104EF000BDE8F0815C000020380000202800002080
:104F00002C0000204C000020540000203C00002019
:104F10003802002024000020480000204400002027
:104F200070B505462C460026002D43D02248006867
:104F3000844201D1012000E0002050B900BF502080
:104F400080F31188BFF34F8FBFF36F8F00BF00BF97
:104F5000FEE7206D50B900BF502080F31188BFF3E9
:104F60004F8FBFF36F8F00BF00BFFEE7206D401E65
:104F70002065E16CE06A88421CD0206DD0B9201D0C
:104F8000FFF738F8E06CE062E06AC0F13800A06139
:104F90000A49E06A0968884202D90849E06A08605B
:104FA000E16A01EB8101064A02EB8100211DFFF756
:104FB00077F80126304670BD240000203C00002018
:104FC0003802002070B50646F068C46854B900BFC6
:104FD000502080F31188BFF34F8FBFF36F8F00BF56
:104FE00000BFFEE704F11800FFF704F81548006859
:104FF000A0B9201DFEF7FEFF1349E06A0968884248
:1050000002D91149E06A0860E16A01EB81010F4AA7
:1050100002EB8100211DFFF743F804E004F11801C1
:105020000B48FFF73DF80B49E06A0968C96A8842F6
:1050300004D9012501200849086000E00025284620
:1050400070BD00005C0000203C0000203802002001
:10505000C0060020240000204800002070B5002475
:1050600000263648006850B900BF502080F31188F0
:10507000BFF34F8FBFF36F8F00BF00BFFEE7FFF797
:105080001BF82E480068401E2C490860084600683E
:1050900000284ED12A48006800284AD023E0294839
:1050A000C068C46804F11800FEF7A4FF201DFEF7D5
:1050B000A1FF2549E06A0968884202D92249E06ACD
:1050C0000860E16A01EB8101204A02EB8100211DA9
:1050D000FEF7E6FF1E49E06A0968C96A884202D302
:1050E00001201C4908601748006808B9012000E049
:1050F00000200028D3D00CB1FEF7CCFD164805687F
:1051000065B100BFFFF76AFE10B1012011490860C8
:105110006D1E002DF6D100200F4908600D48006873
:1051200038B1012630070D490860BFF34F8FBFF338
:105130006F8FFEF7EBFF304670BD00005C00002073
:1051400034000020C00600203C000020380200206F
:1051500024000020480000204400002004ED00E06E
:1051600010B586B00024FEF70BFA16480068D0B1DF
:1051700000200590049003AA04A905A8FEF75AFF91
:105180000222DDE904100023CDE9002102900EA1E6
:105190000F48039AFFF7AEFD0E4908600846006805
:1051A00000B1012400BF54B900BF502080F3118822
:1051B000BFF34F8FBFF36F8F00BF00BFFEE72046E6
:1051C00006B010BD68000020546D72205376630055
:1051D000D93D00086C0000202DE9FF4704460D462C
:1051E00016461F46DDF830804FF0000954B900BF65
:1051F000502080F31188BFF34F8FBFF36F8F00BF34
:1052000000BFFEE71448006810B3009501960294B1
:10521000062D15DAFFF7CCFD022808D100234246FF
:1052200069460D480068FFF7E7FA814610E0002361
:105230001A46694608480068FFF7DEFA814607E02B
:1052400000233A46694604480068FFF7A9FB8146F7
:10525000484604B0BDE8F08768000020A853000865
:10526000000000000000000000000000000000003E
:105270000002000018000000000000000000000014
:105280009C53000800000000000000000000000027
:105290000000000000020000080000000000000004
:1052A00000000000B45300080000000000000000EF
:1052B00000000000000000000002000008000000E4
:1052C0000000000000000000C453000800000000BF
:1052D00000000000000000000000000000020000CC
:1052E00008000000000000000000000002030405A8
:1052F000060708090A0B0C0D0E0F10100102000022
:105300000000000000000102030406070809000075
:105310000000010203040040404040404040404043
:105320004141414141404040404040404040404078
:105330004040404040404005020202020202020298
:10534000020202020202022020202020202020202F
:10535000200202020202020290909090909010109F
:10536000101010101010101010101010101010103D
:1053700010100202020202028888888888880808C1
:10538000080808080808080808080808080808089D
:105390000808020202024000175300086D795461A8
:1053A000736B5F6C6564000064656661756C745452
:1053B00061736B006D795461736B5F756172745FBB
:1053C000727800006D795461736B5F756172745F00
:1053D00074780000F453000800000020C0000000B2
:1053E000062E0008B4540008C00000205020000021
:1053F000162E000800000000000000000000000061
:10540000000000000000000000000000100000008C
:105410000100000000127A000000000000000000FF
:10542000000000000000000000000000000000007C
:10543000000000000000000000000000000000006C
:10544000000000000000000000000000000000005C
:10545000000000000000000000000000000000004C
:10546000000000000000000000000000000000003C
:10547000000000000000000000000000000000002C
:10548000000000000000000000000000AAAAAAAA74
:10549000000000000000000000000000000000000C
:1054A00000000000000000000000000000000000FC
:0454B00000000000F8
:0400000508000131BD
:00000001FF
